:06000000027618025D8982
:03000B000202A24C
:03001300025E1773
:03001B00025D374C
:0100230032AA
:03002B00025C5D17
:03003300025B79F4
:0B761800758180127017E5826003028C
:02762300003B2A
:0A7625007408F97A004A601A0A900E
:06762F0076BE786375A031
:0D76350000E493F2A308B8000205A0D9F408
:05764200DAF275A0FF63
:0476470075217E75B6
:03764B00220075A5
:02764E00230215
:0376BB0002003B8F
:05003B0012004080FEF0
:09004000C04B85814B75A7071226
:0E0049000910438EC075895143B80843B708AB
:0E00570043B74043B80443B70443B72043B84F
:0800650002125F12125A891207
:06006D0009EE1201D91298
:050073005AEB1229EF19
:06007800854B81D04B22F4
:0E007E004544524956455F534F465457415230
:0E008C00455F56455253494F4E5F325F31205B
:0E009A002449643A206564726976652E632CF1
:0E00A8007620312E3820323030352F30362F72
:0E00B60032322032303A30343A353420746F12
:0B00C4006D61737A20457870202400E5
:067650007524F07525FF12
:0A00CF00C04B85814BD310AF01C375
:0C00D900C0D0AA82E54B24FAF88682E52C
:0D00E5004B24FA04F886037C008B8343A2B1
:0C00F20001E54B24FCF88682E54B24FC61
:0E00FE0004F886037C008B8353A2FE43A220ED
:09010C00741DC0E07401C0E0C0E4
:0801150024C02579098AE022CB
:06011D0053A2DF85E08221
:0A012300D0D092AF854B81D04B2263
:08765600752900752600E4F51A
:03765E0028F527E5
:0C012D00C04B85814B058105810581AA2E
:0A013900827B00A84B0876007D00D1
:08014300A84B08B6000280037E
:03014B000201D1DD
:0D014E00C00375F007EDA4246AFEE5F0344F
:0C015B0006FF8E828F83E54B2402F8E43F
:0D01670093F674019308F68A037C00E54BC3
:0E0174002402F8E6B5030908E6B50404740198
:020182008001FA
:01018400E496
:04018500D003601B28
:0E018900C00274022EF582E43FF583E493FC7D
:0D019700740193FA8C03A84B087601D00286
:0C01A400E54B2402F8B6002108B6001D4F
:0E01B00074022EF582E43FF583E493FC7401A3
:0801BE0093FEBC000ABE00071D
:0701C600A84B0876017B92B3
:0401CD000D020143DB
:0201D1008B821F
:0601D300854B81D04B2298
:0601D900C04B85814B9034
:0E01DF0000007490F09000017490F0D2A9D24C
:0101ED008C85
:0601EE00854B81D04B227D
:0601F400C04B85814B9019
:0601FA000002E0FAF582AC
:06020000854B81D04B226A
:06020600C04B85814B9006
:06020C000001E0FAF5829A
:06021200854B81D04B2258
:06021800C04B85814B90F4
:05021E0000017490F0E6
:06022300854B81D04B2247
:06022900C04B85814B90E3
:06022F000000E0FAF58278
:06023500854B81D04B2235
:06023B00C04B85814BE57C
:0602410045B40102800E2D
:07024700E545B40202801737
:07024E00E545B403498030CF
:0B025500C3E5279464E5289400403CBA
:05026000754502803726
:0302650030B23480
:0B026800900013E0FAA3E0FB4A600ADC
:06027300E4F528F52775F3
:040279004503801F9A
:08027D007545001255A9801718
:0D028500900013E0FAA3E0FBC3E5279AE523
:04029200289B40065F
:060296007545001255A998
:06029C00854B81D04B22CE
:0E02A200C0E0C0F0C082C083C002C003C00430
:0E02B000C005C006C007C000C001C0D075D098
:0702BE0000C04B85814B12CB
:0702C500023B74142527F52C
:0502CC0027E43528F5D0
:0402D10028AA48AB64
:0A02D50049AC4A8A828B838CF01238
:0802DF007149FABA0002801B0C
:0702E7000526E526B41E0206
:0202EE00C2B696
:0702F000E526B43C02800387
:0302F70002047D81
:0802FA00D2B675260002047D56
:09030200D2B6E52DB4010280031E
:03030B0002047D6C
:09030E000526E526B41E02800359
:030317000203C618
:05031A00AA2AAB2BAC88
:0D031F002C8A828B838CF0127149FAE4C0A5
:0B032C00E08A8212078E1581AA2AAB1E
:0C0337002BAC2C74042AFAE43BFB8A82F5
:0E0343008B838CF0127149FAA3127149FBA34F
:0E035100127149FC8A828B838CF0120872AA0A
:04035F002AAB2BACEE
:0D0363002C740D2AFAE43BFB8A828B838CFC
:0E037000F0127149FAC374818AF063F080952F
:03037E00F05045F7
:05038100AA2AAB2BAC21
:0D0386002C8A828B838CF0127149FA74026C
:0C039300C0E08A8212078E1581AA2AABF6
:0C039F002BAC2C740A2AFAE43BFB8A8287
:0E03AB008B838CF0127149FAA3127149FBA3E7
:0D03B900127149FC8A828B838CF01208724D
:0703C600E526B43C028003B0
:0303CD0002047DAA
:0503D000AA2AAB2BACD2
:0D03D5002C8A828B838CF0127149FAE4C0EF
:0B03E200E08A8212078E1581AA2AAB68
:0803ED002BAC2C0ABA00010B35
:0E03F5008A828B838CF0127149FAA31271492F
:0D040300FBA3127149FC8A828B838CF012DE
:050410000872AA2AABEE
:0C0415002BAC2C740D2AFAE43BFB8A820D
:0E0421008B838CF0127149FAC374818AF063E8
:06042F00F08095F050453D
:05043500AA2AAB2BAC6C
:0D043A002C8A828B838CF0127149FA7401B8
:0C044700C0E08A8212078E1581AA2AAB41
:0C0453002BAC2C74072AFAE43BFB8A82D5
:0E045F008B838CF0127149FAA3127149FBA332
:0D046D00127149FC8A828B838CF012087298
:03047A00752600E4
:07047D00AA290529BA0500B8
:05048400500302064ACE
:0D0489007529007A00C280E580C313FB5383
:07049600030FBB0F028042BF
:0E049D007A018B82C00212012DAC82D002BC0B
:0404AB009202803009
:0B04AF00900000E0FDECB50502802588
:0B04BA00900002ECF0900000ECF090CD
:0804C50000017491F0AD48AE96
:0A04CD0049AF4A8D828E838FF01232
:0604D7007149FDBD0002A9
:0204DD00C2B6A5
:0E04DF00D280C285E580C313FD740F5DFBBBA8
:0404ED000F02804634
:0E04F1000A4303108B82C00212012DAD82D08F
:0804FF00028D04BC9202803062
:0B050700900000E0FDECB5050280252F
:0B051200900002ECF0900000ECF09074
:08051D0000017491F0AD48AE3D
:0A05250049AF4A8D828E838FF012D9
:06052F007149FDBD000250
:02053500C2B64C
:0E053700D285C286E580C313FD740F5DFBBB49
:040545000F028046DB
:0E0549000A4303208B82C00212012DAD82D026
:08055700028D04BC9202803009
:0B055F00900000E0FDECB505028025D7
:0B056A00900002ECF0900000ECF0901C
:0805750000017491F0AD48AEE5
:0A057D0049AF4A8D828E838FF01281
:060587007149FDBD0002F8
:02058D00C2B6F4
:0E058F00D286C287E580C313FD740F5DFBBBEF
:04059D000F02804683
:0E05A1000A4303308B82C00212012DAD82D0BE
:0805AF00028D04BC92028030B1
:0B05B700900000E0FDECB5050280257F
:0B05C200900002ECF0900000ECF090C4
:0805CD0000017491F0AD48AE8D
:0A05D50049AF4A8D828E838FF01229
:0605DF007149FDBD0002A0
:0205E500C2B69C
:0E05E700D287C2B7E580C313FD740F5DFBBB66
:0405F5000F0280462B
:0E05F9000A4303408B82C00212012DAB82D058
:08060700028B04BC920280305A
:0B060F00900000E0FBECB5030280252A
:0B061A00900002ECF0900000ECF0906B
:0806250000017491F0AB48AC38
:0A062D0049AD4A8B828C838DF012D8
:060637007149FBBB00024B
:02063D00C2B643
:05063F00D2B7BA00066D
:060644009000007490F02C
:0C064A00854B81D04BD0D0D001D000D027
:0E06560007D006D005D004D003D002D083D048
:0606640082D0F0D0E0326C
:0B066A0037000000F306024B00010007
:07067500F506023B00020044
:07067C00F706022B0003004A
:07068300F906024D0004001E
:07068A00FB06023D00050024
:07069100FD06022D0006002A
:07069800FF06024E000700FF
:07069F000107023E00080004
:0706A6000307022E0009000A
:0706AD000507021D0010000B
:0706B4000707021E00110000
:0706BB000C07020D00120004
:0706C2001207020B001300F8
:0706C9001E070247001400A8
:0706D00028070217001500C6
:0706D7002E07020E001600C1
:0706DE003307021B001700A7
:0706E500380702270018008E
:0706EC003E070200000000C0
:0206F3003000D5
:0206F5003100D2
:0206F7003200CF
:0206F9003300CC
:0206FB003400C9
:0206FD003500C6
:0206FF003600C3
:020701003700BF
:020703003800BC
:020705003900B9
:050707004C45465400C2
:06070C0052494748540069
:0C071200484F4C4F2053454152434800D3
:0A071E00544553542050554C4C0034
:06072800434C4541520064
:05072E00494E434800A4
:0507330053544F50007B
:0607380052455345540038
:06073E00454E5445520037
:0C074400C04B85814BAA82AB837C007DFA
:0107500000A8
:0E075100C3EC9AED64808BF063F08095F0505D
:01075F000D8C
:0D07600075A61E75A6E10CBC00E70D80E437
:06076D00854B81D04B22F8
:0B077300C04B85814BD2A490012C12DA
:0A077E000744C2A490012C120744A6
:06078800854B81D04B22DD
:08078E00C04B85814BAA82E5F6
:070796004B24FDF8B6001032
:0E079D0074802AF5827401C0E01207C1158134
:0207AB00800EBE
:0E07AD0074C02AF5827401C0E01207C11581E4
:0607BB00854B81D04B22AA
:0807C100C04B85814BAA82E5C3
:0707C9004B24FDF8E6602B54
:0907D000EAC4540F30E30244F0C6
:0E07D900FB53030F748055A04BF5A0C0021215
:0E07E7000773D002740F5AFB748055A04BF5B7
:0607F500A0120773803022
:0907FB00EAC4540F30E30244F09B
:0E080400FB740F5B4440FB748055A04BF5A0C5
:0E081200C002120773D002740F5A4440FA74E9
:0B0820008055A04AF5A0120773C2A685
:06082B00854B81D04B2239
:0C083100C04B85814B7401C0E075820152
:05083D001207C1158146
:06084200854B81D04B2222
:0C084800C04B85814B7401C0E07582023A
:050854001207C115812F
:06085900854B81D04B220B
:09085F00C04B85814BE4C0E0129E
:0408680007C115812E
:06086C00854B81D04B22F8
:0C087200C04B85814BAA82AB83ACF07DAB
:01087E000079
:0E087F008A828B838CF0C002C003C004C005C7
:0E088D00127121AE82AF83D005D004D003D00B
:0C089B00028D007900C3E89EE99F5035F3
:0E08A70075A61E75A6E1ED2AFEE43BFF8C004F
:0E08B5008E828F8388F0127149FEC002C0034C
:0E08C300C004C005E4C0E08E821207C115819A
:0B08D100D005D004D003D0020D80A39E
:0608DC00854B81D04B2288
:0C08E200C04B85814B7401C0E075820F93
:0508EE001207C1158195
:0608F300854B81D04B2271
:0C08F900C04B85814B7401C0E075820C7F
:050905001207C115817D
:06090A00854B81D04B2259
:09091000C04B85814B900BB8121D
:0C091900074475A003120773900BB8127E
:0C092500074475A003120773900BB81272
:0C093100074475A003120773900BB81266
:0E093D000744748055A04402F5A01207739081
:0D094B000BB81207447401C0E075820C1255
:0809580007C1158112083112DC
:0509600008481208F92F
:06096500854B81D04B22FE
:06766100E4F52CF52BF509
:057667002A752D0175DC
:06766C002E00752F0075D1
:0576720030007531003D
:08096B00C04B85814BAA82906C
:0E0973000003E0FB74012BFC900003F07D00FC
:0C098100EB2405F582ED3400F583EAF06C
:08098D00530407900003ECF095
:06099500854B81D04B22CE
:08099B00C04B85814B7A0090EE
:0E09A3000003E0FB900004E0FCEBB5040280D2
:0109B1002025
:0D09B2001B900003EBF08B047D00EC24058E
:0D09BF00F582ED3400F583E0FC8C0253035B
:0609CC0007900003EBF0B0
:0209D2008A8217
:0609D400854B81D04B228F
:0609DA00C04B85814B902B
:0809E0000003E4F0900004F0B4
:0609E800854B81D04B227B
:0C09EE00C04B85814B058105810581907F
:0D09FA00383BE493FA740193FB7C02A84B98
:0C0A070008760D0876000876018A828BC4
:0A0A1300838CF0127149FDBDFF5AFB
:070A1D007AF17B377C02A88F
:040A24004B087D00FE
:030A2800BD4800C6
:020A2B00502950
:0E0A2D008A828B838CF0127149FEA3AA82ABE1
:0D0A3B0083A84B0886820886830886F0EEAB
:0E0A480012701BA31818A68208A6830D80D278
:0C0A5600C2AF7D0D7E00E4C0E0747DC0E6
:0E0A6200E0C005C0067582481200CFE5812471
:070A7000FCF581D2AF8033D9
:050A7700A84B087D0002
:030A7C00BD480072
:020A7F005029FC
:0E0A81008A828B838CF0127149FEA3AA82AB8D
:0D0A8F0083A84B0886820886830886F0EE57
:0E0A9C0012701BA31818A68208A6830D80D224
:060AAA00854B81D04B22B8
:060AB000C04B85814B756F
:050AB6002D00AA2AAB8F
:0A0ABB002BAC2C8A828B838CF01286
:0E0AC5007149FAE4C0E08A8212078E1581AAF8
:040AD3002AAB2BAC73
:060AD7002C0ABA00010B1D
:0E0ADD008A828B838CF0127149FAA312714940
:0D0AEB00FBA3127149FC8A828B838CF012F0
:050AF8000872AA2AAB00
:0C0AFD002BAC2C740D2AFAE43BFB8A821F
:0E0B09008B838CF0127149FAC374818AF063F9
:060B1700F08095F050454E
:050B1D00AA2AAB2BAC7D
:0D0B22002C8A828B838CF0127149FA7401C9
:0C0B2F00C0E08A8212078E1581AA2AAB52
:0C0B3B002BAC2C74072AFAE43BFB8A82E6
:0E0B47008B838CF0127149FAA3127149FBA343
:0D0B5500127149FC8A828B838CF0120872A9
:0C0B620075F03CE52EA424E7FAE5F03421
:0D0B6E003BFB74042AFAE43BFB75F008E53C
:0D0B7B0030A42AFAE5F03BFB74022AF58253
:0C0B8800E43BF583E493F52A740193F537
:070B94002B740293F52C7590
:020B9B002D012A
:060B9D00854B81D04B22C4
:0C0BA300C04B85814B05810581C0E0A896
:0D0BAF004B08D0E0A68208A68375F03CE557
:080BBC002EA424E7FCE5F0344F
:0C0BC4003BFD74042CFCE43DFDE54B24DB
:0C0BD000FDF8C2D5E630E704D2D5F404ED
:0E0BDC0075F008A430D50AF42401C5F0F434F5
:030BEA0000C5F053
:0E0BED002CFCE5F03DFD74052CF582E43DF591
:0E0BFB0083E493FC740193FD740293FE740175
:0E0C09002CFFE43DFA8E038F828A838BF0125B
:0E0C17007149FF8C828D838EF0127149FCC0F2
:0D0C2500078C8212078E1581A84B08B600BF
:050C32001608B60012D7
:0D0C3700E54B24F7F886820886830886F0D6
:050C440012087280108F
:0D0C4900E54B24FAF886820886830886F0C1
:030C56001208720F
:060C5900854B81D04B2207
:0C0C5F00C04B85814B0581058105810596
:0D0C6B0081C0E0A84B08D0E0A68208A68357
:0C0C780008A6F008F675F03CE52EA42458
:0C0C8400E7FEE5F0343BFF74042EFEE4B4
:0D0C90003FFFE54B24FDF8C2D5E630E70438
:040C9D00D2D5F404B4
:0E0CA10075F008A430D50AF42401C5F0F4342F
:030CAF0000C5F08D
:0E0CB2002EFEE5F03FFF74052EF582E43FF5BF
:0E0CC00083E493FE740193FF740293FA7401AF
:0E0CCE002EFBE43FFC8A058B828C838DF01296
:0E0CDC007149FB8E828F838AF0127149FCC031
:0E0CEA0002C006C007C0038C8212078E15815F
:0E0CF800D007D006D00274032EFEE43FFF8E1C
:0E0D0600828F838AF0127149FEA3127149FF99
:0D0D1400A3127149FAA84B08E6C0E008E6FA
:0E0D2100C0E008E6C0E008E6C0E0C006C0077B
:090D2F00127172E58124FAF581CC
:060D3800854B81D04B2227
:0C0D3E00C04B85814B05810581C0E0A8F9
:0D0D4A004B08D0E0A68208A68375F03CE5BA
:080D57002EA424E7FCE5F034B2
:0C0D5F003BFD74042CFCE43DFDE54B243E
:0C0D6B00FDF8C2D5E630E704D2D5F40450
:0E0D770075F008A430D50AF42401C5F0F43458
:030D850000C5F0B6
:0E0D88002CFCE5F03DFD74052CF582E43DF5F4
:0E0D960083E493FC740193FD740293FE7401D8
:0E0DA4002CFFE43DFA8E038F828A838BF012BF
:0E0DB2007149FF8C828D838EF0127149FAC058
:0E0DC00004C005C006C0078A8212078E158186
:0E0DCE00D006D005D00474032CFCE43DFD8C4F
:0E0DDC00828D838EF0127149FCA3127149FDC5
:0D0DEA00A3127149FEA84B08E6C0E008E620
:0E0DF700C0E0C004C005127172E58124FCF555
:010E0500816B
:060E0600854B81D04B2258
:0C0E0C00C04B85814B058105810581AA42
:0E0E180082900057E0FB90005775F001C00279
:0D0E2600C003125F8FD003D002E54B24FD06
:080E3300F8E630E70302112B81
:0D0E3B00C3748386F063F08095F0500302CD
:020E4800112B6C
:0D0E4A00E54B24FDF8E625E026900E5773D9
:070E5700020F33020FD60267
:020E5E001089F9
:0C0E600075F03CE52EA424E7FCE5F0341E
:0D0E6C003BFD74042CFCE43DFDC2D5EA30D2
:060E7900E704D2D5F404E9
:0E0E7F0075F008A430D50AF42401C5F0F4344F
:030E8D0000C5F0AD
:0E0E90002CFCE5F03DFD74052CF582E43DF5EB
:0D0E9E0083E493FC740193FD740293FEA89D
:0D0EAB004B08A60408A60508A60690003D09
:0D0EB80075F0011265D1A84B08740126FFEA
:0E0EC500E40836FC0886058F828C838DF012BF
:0D0ED3007149FFA84B0886820886830886B7
:0E0EE000F0127149FCC0078C8212078E15813A
:0E0EEE0090005AE0FC7D0090005BE0FE7F006B
:0E0EFC0074012EFAE43FFB90005CE0FEA3E0E0
:0E0F0A00FF74D02EFE74073FFFC004C005C068
:0C0F180002C003C006C0077483C0E07470
:0D0F240045C0E0127172E58124F8F58102EC
:020F3100112B82
:0C0F3300900057E0FCEBB5040302112B0A
:0A0F3F00752D0075F03CE52EA4248A
:0C0F4900E7FBE5F0343BFC74042BFBE4F8
:0C0F55003CFCC2D5EA30E704D2D5F4041D
:0E0F610075F008A430D50AF42401C5F0F4346C
:030F6F0000C5F0CA
:0E0F72002BFBE5F03CFC74052BF582E43CF50E
:0D0F800083E493FA740193FB740293FCA8C0
:0C0F8D004B08A60208A60308A604A84B07
:0E0F990008740126FAE40836FB0886048A82F2
:0D0FA7008B838CF0127149FAA84B088682EA
:0E0FB4000886830886F0127149FBC0028B820A
:0C0FC20012078E158190005775F0011287
:060FCE006AE2752D01022C
:020FD400112BDF
:0C0FD60075F03CE52EA424E7FAE5F034A9
:0D0FE2003BFB74042AFAE43BFB75F008E5C4
:0D0FEF0030A42AFAE5F03BFB74052AF582D8
:0E0FFC00E43BF583E493FA740193FB740293D3
:0D100A00FCA84B08A60208A60308A604A82F
:0D1017004B08740126FAE40836FB08860435
:0D1024008A828B838CF0127149FAA84B0868
:0E10310086820886830886F0127149FBC00291
:0E103F008B8212078E158190005AE0FA7B001A
:0C104D0090005BE0FC7D000CBC00010D7D
:0E10590090005CE0FEA3E0FF74D02EFE740752
:0E1067003FFFC002C003C004C005C006C007A2
:091075007483C0E07445C0E01270
:0B107E007172E58124F8F58102112B4E
:0C10890075F03CE52EA424E7FAE5F034F5
:0D1095003BFB74042AFAE43BFB75F008E510
:0D10A20030A42AFAE5F03BFB74052AF58224
:0E10AF00E43BF583E493FA740193FB7402931F
:0D10BD00FCA84B08A60208A60308A604A87C
:0D10CA004B08740126FAE40836FB08860482
:0D10D7008A828B838CF0127149FAA84B08B5
:0E10E40086820886830886F0127149FBC002DE
:0E10F2008B8212078E1581900057E0FA7B006A
:0E110000900058E0FC7D00900059E0FE7F005A
:0D110E00C002C003C004C005C006C00774C5
:08111B0092C0E07445C0E0122F
:081123007172E58124F8F581E9
:06112B00854B81D04B2230
:0C113100C04B85814BE5812409F581AAA3
:0D113D0082AB83ACF0A84B08A60208A60305
:0A114A0008A604E54B2406F8760021
:0C11540075F03CE52EA424E7FEE5F03425
:0D1160003BFF74032EF582E43FF583E4931A
:0D116D00FA1AE54B2406F8C3E69A40030287
:02117A00130E52
:0D117C0074042EFEE43FFFE54B2406F875D9
:0E118900F008E6A42EFEE5F03FFF74052EF5FB
:0E11970082E43FF583E493FA740193FB740243
:0D11A50093FCE54B2407F8A60208A60308FA
:0D11B200A604A84B0886820886830886F0F4
:0A11BF00127149FAA3127149FBE511
:0C11C9004B2404F8A60208A603E54B2402
:0E11D50007F8740126FAE40836FB0886048A3F
:0D11E300828B838CF0127149FDE54B2407CF
:0E11F000F886820886830886F0127149FEC0D8
:0E11FE0002C003C004C0058E8212078E158148
:0D120C00D004D003D002E54B2407F8740392
:0E12190026FDE40836FE0886078D828E838F40
:0C122700F0127149FDA3127149FEA312E0
:0D1233007149FFC002C003C004E54B240454
:0D124000F8E6C0E008E6C0E0C005C00612F8
:0E124D007172E58124FCF581D004D003D0023B
:0D125B00E54B2407F8740226FDE40836FE7A
:0E1268000886078D828E838FF0127149FD700B
:04127600030212FA63
:0C127A00A84B0886820886830886F012C4
:091286007149FEA3127149FFE554
:0C128F004B2404F8A60608A607E4F54E60
:0C129B00754D0AE54B2404F88682088695
:0E12A70083C002C003C004C0051270D4AE8222
:0E12B500AF83D005D004D003D0028A828B8391
:0D12C3008CF0127149FAE54B2407F8868281
:0E12D0000886830886F0127149FBED2BF5822B
:0D12DE00C00212078E1581C006C00774A162
:0D12EB00C0E07445C0E0127172E58124FC82
:0212F800F5817E
:0C12FA00A84B08740226F6E40836F6E55E
:081306004B2406F80602115405
:06130E00854B81D04B224B
:0C131400C04B85814B7A00D292C2A8C267
:0D132000AEC2AAC294C28EC2CA752D00C012
:0D132D0002120831D002C00274A5C0E074A5
:0D133A0045C0E012717215811581D002C00E
:0613470002120218D002A0
:03134D00BA0022C1
:0E13500075A61E75A6E1C002120206AB82D081
:04135E0002BB91EB52
:0C136200C0021201F4AB82D002BB17DF06
:04136E007A0180DBA5
:05137200752D01D2A859
:06137700854B81D04B22E2
:0A137D00C04B85814B7A007B00AC69
:0413870048AD49AE76
:0D138B004A8C828D838EF0127149FCBC00EB
:041398000302143305
:0B139C00752D00C003120831D003AC17
:0413A70048AD49AE56
:0613AB004A0CBC00010D1C
:0E13B1008C828D838EF0127149FCA31271495B
:0D13BF00FDA3127149FEC003C004C0051259
:0E13CC00717215811581D003C003120218D072
:0113DA00030F
:0313DB00BB004B09
:0E13DE0075A61E75A6E1C003120206AC82D0F1
:0413EC0003BC91EBC2
:0C13F000C0031201F4AC82D003BC160B49
:0B13FC00C003C004121314D004D0037F
:03140700BC17020D
:02140A007B0164
:05140C00AD48AE49AF40
:0D1411004A8D828E838FF0127149FDBD025D
:01141E00BC11
:03141F00BC12B943
:07142200125AFF7B0180B2AA
:0A142900D2A8126E647A01752D013D
:0A143300900063E0FBBB01028003A0
:03143D000214CACC
:05144000E52EB404627A
:0D144500752D00900047E0FBA3E0FCA3E044
:0E145200FDA3E0FEC002E4C0E08B828C838D1F
:0E146000F0EE120C5F1581D002900045E0FB0B
:0E146E00A3E0FCC0027401C0E08B828C8312EC
:0E147C000D3E1581D00290004BE0FBA3E0FC7A
:0E148A00A3E0FDA3E0FEC0027402C0E08B826E
:0D1498008C838DF0EE120C5F1581D0027573
:0214A5002D0117
:0514A700E52EB403195D
:0614AC00752D007B1D7C84
:0C14B200007D018B828C838DF0C0021243
:0714BE001131D002752D0170
:0514C500900063E4F05B
:0514CA00E52EB4060F41
:0E14CF00C002E4C0E0758200120E0C1581D040
:0114DD00020C
:0814DE00900068E0FBBB012B4C
:0314E60030922819
:0C14E900C2AF7B0D7C00C002E4C0E074C8
:0E14F5007DC0E0C003C0047582481200CFE540
:0E1503008124FCF581D002900068E4F0D2AFA4
:0315110020900720
:07151400C002125A9CD00234
:02151B008A82C2
:06151D00854B81D04B223A
:0C152300C04B85814BAA827B00BA1202EB
:02152F00802812
:05153100BA1302800A5C
:05153600BA150280154A
:05153B00BA1622800930
:09154000C0031255A9D003801765
:071549001213147B01801056
:09155000C003125A9CD00380076D
:07155900C003125AFFD0038A
:021560008B827C
:06156200854B81D04B22F5
:09156800C04B85814B75F03CE598
:081571002EA424E7FAE5F03492
:0D1579003BFB74042AFAE43BFB75F008E527
:0D15860030A42AF582E5F03BF583E493F5EF
:061593002E12099B858267
:011599003021
:06159A00854B81D04B22BD
:0C15A000C04B85814B7A007B017C0175FB
:0415AC002D007D0091
:0515B000BA00028003F7
:0315B50002168992
:0E15B80075A61E75A6E1C002C003C004C005E2
:0E15C600120206AE82D005D004D003D002BEC1
:0215D40091DAAA
:0E15D600C004C003C004C0051201F4AE82D0F0
:0E15E40005D004D0038E82C003C004C005C031
:0E15F20006121523AF82D006D005D004D00318
:0E1600008F0274302EFEC002C003C004C0056D
:0C160E00C006C00774F6C0E07445C0E0E0
:0E161A0012717215811581D007D006D005D04F
:0C16280004D003D002ED2533F582E43538
:0D16340034F583E493FCEEB50404740180EA
:0116410001A7
:01164200E4C3
:04164300D00470025D
:021647007B0026
:0C164900C0048D040DEC2535F582E4355D
:0D16550036F583E493FCEEB50404740180C7
:011662000186
:01166300E4A2
:04166400D00470023C
:021668007C0004
:03166A00BD0602B8
:02166D007A0100
:0E166F00C002C003C004C005C007120218D09C
:0C167D0007D005D004D003D0020215B045
:03168900BB010999
:07168C00752E1B752F01757F
:02169300300025
:03169500BC01098C
:07169800752E1B752F007574
:02169F00300019
:0316A100BB004C3F
:0316A400BC00493E
:0316A700BF003051
:0816AA0012083174F8C0E0746D
:0C16B20045C0E0127172158115817A00AC
:0316BE00BA001956
:0E16C10075A61E75A6E1C002120206AB82D00D
:0416CF0002BB91EBDE
:0716D3001201F47A0180E42A
:0716DA00752E0075300012AF
:0616E10009DA120218C034
:0916E7002E758200126CF51581CC
:0616F000854B81D04B2266
:0C16F600C04B85814BAA82AB83ACF0FD99
:091702007E00752D008A048B05A0
:05170B00BE0002800396
:031710000217B30A
:0E17130075A61E75A6E1C002C003C004C00585
:0E17210012137DAF82D005D004D003D0028F0A
:04172F0006BE00D81A
:0E173300C002C003C004C005C006120206AF0B
:0E17410082D006D005D004D003D002BF91BCE8
:0D174F00C002C003C004C0051201F4858271
:0C175C0031D005D004D003D002853182CA
:0E176800C002C003C004C005121523AF82D01A
:0D17760005D004D003D0028F06E531B41475
:0317830002800DD4
:05178600E531B4170E6F
:08178B007E017C007D00800658
:061793008A048B057E01B3
:0E179900C002C003C004C005C006120218D072
:0C17A70006D005D004D003D00202170BBE
:0E17B300C004C005121568D005D004C004C0E3
:0D17C10005C02E758200126CF51581D00553
:0D17CE00D0047A007B008C828D838AF0EBC2
:0617DB00854B81D04B227A
:0C17E100C04B85814BE5812408F581C0D8
:0C17ED00E0A84B08D0E0A68208A683E527
:0917F9004B2406F8E4F6F52DA8D6
:0C1802004B08E54B2407F9E6F70809E65F
:0C180E00F775F03CE52EA424E7FFE5F0A0
:0D181A00343BFD74042FFFE43DFD75F00824
:0D182700E530A42FFFE5F03DFD74052FF521
:0E18340082E43DF583E493FD740193FE74029B
:0D18420093FFE54B2403F8A60508A6060851
:0D184F00A607E54B2403F8740126FAE4080F
:0E185C0036FB0886048A828B838CF012714959
:0D186A0004FDE54B2403F886820886830800
:0E18770086F0127149FEC002C003C004C00515
:0E1885008E8212078E1581D004D003D002A8E7
:0B1893004B08B6000608B60002801EDD
:0D189E00E54B24FBF886820886830886F05F
:0E18AB00C002C003C004120872D004D003D0E3
:0318B90002801C8E
:0D18BC00E54B24F8F886820886830886F044
:0E18C900C002C003C004120872D004D003D0C5
:0118D700020E
:0A18D800E54B2406F8B60002800379
:0318E200021B32B4
:0D18E50075A61E75A6E1C002C003C0041266
:0D18F200137DAD82D004D003D002E54B245D
:0C18FF0006F8A605E54B2406F8B600CD5F
:0E190B00C002C003C004120206AD82D004D098
:0619190003D002BD91B9EC
:0D191F00C002C003C0041201F4858231D063
:0D192C0004D003D002853182C002C003C088
:0D19390004121523AD82D004D003D002E5C6
:0C1946004B2406F8A605E54B2406F8B675
:02195200010E84
:0C195400A84B08E54B2407F9E6F708094A
:02196000E6F7A8
:07196200E531B41002803BE7
:08196900E531B41103021A6418
:07197100E531B414028014FB
:07197800E531B41802800301
:03197F00021B2028
:0A198200E54B2406F87601021B2055
:0C198C00A84B08E54B2407F9E6F7080912
:0C199800E6F7E54B2406F87601021B2060
:0C19A400E54B2407F8B6015D08B60059B9
:0D19B000E54B2407F8E4F608F68A828B83E5
:0D19BD008CF012714904FDE54B2403F886FF
:0E19CA00820886830886F0127149FEC002C0B2
:0E19D80003C004C0058E8212078E1581D00454
:0D19E600D003D002E54B24F8F88682088675
:0E19F300830886F0C002C003C004120872D040
:081A010004D003D002021B20F7
:0D1A0900E54B2407F8E408F61876018A8200
:0D1A16008B838CF012714904FDE54B240315
:0E1A2300F886820886830886F0127149FEC09C
:0E1A310002C003C004C0058E8212078E15810C
:0D1A3F00D004D003D002E54B24FBF88682D2
:0D1A4C000886830886F0C002C003C00412A3
:0B1A59000872D004D003D002021B2052
:0C1A6400E54B2407F8B6015C08B60058FA
:0D1A7000E54B2407F8E4F608F68A828B8324
:0D1A7D008CF012714904FDE54B2403F8863E
:0E1A8A00820886830886F0127149FEC002C0F1
:0E1A980003C004C0058E8212078E1581D00493
:0D1AA600D003D002E54B24F8F886820886B4
:0E1AB300830886F0C002C003C004120872D07F
:071AC10004D003D00280589D
:0D1AC800E54B2407F8E408F61876018A8241
:0D1AD5008B838CF012714904FDE54B240356
:0E1AE200F886820886830886F0127149FEC0DD
:0E1AF00002C003C004C0058E8212078E15814D
:0D1AFE00D004D003D002E54B24FBF8868213
:0D1B0B000886830886F0C002C003C00412E3
:081B18000872D004D003D002D2
:0E1B2000C002C003C004120218D004D003D0CB
:041B2E00020218D8BF
:091B3200121568C02E7582001224
:0D1B3B006CF51581E54B2407F886820886BD
:011B48008319
:061B4900854B81D04B2208
:0C1B4F00C04B85814BE5812406F581C068
:0C1B5B00E0A84B08D0E0A6827B01E54B1F
:0D1B67002402F8E4F608F6E54B24FBF886AE
:0B1B740006E54B24FAF8E4B60001047B
:0C1B7F00FFA84B08E54B2404F974012674
:0C1B8B00F7E54B2404F8E54B2405F9E6CF
:0C1B9700F7E54B2404F8E54B2406F9E6C2
:011BA300F74A
:0B1BA400A84B08C3E69B5003021DC8BD
:0D1BAF00C00675A61E75A6E1C003C0071292
:0D1BBC00137DAE82D007D003E4BE0001040B
:071BC900D0067003021DAEFF
:0D1BD000C00675A61E75A6E1C003C0071271
:0D1BDD000206AE82D007D003E4BE910104E1
:041BEA00D00660B60B
:0D1BEE00C006C003C006C0071201F48582C6
:0D1BFB0031D007D006D003C003C006C007DC
:0D1C08001208F9D007D006D003853182C044
:0E1C150003C007121523AE82D007D003E4BE31
:031C2300010104B8
:041C2600D006600381
:031C2A00753114FD
:0E1C2D00C003C006C0071208E2D007D006D0E0
:0B1C3B0003C3E531940A4003021D0EB4
:041C4600EBB5062BC9
:0D1C4A00C006AE317A00C003C006C007C05E
:0C1C570006C0027441C0E07446C0E012F8
:0E1C63007172E58124FCF581D007D006D00314
:041C7100D0068029F0
:0D1C7500C006AA317E00C003C006C007C033
:0C1C820002C0067445C0E07446C0E012C9
:0E1C8E007172E58124FCF581D007D006D003E9
:021C9C00D00670
:031C9E00EF603FB5
:091CA100C006E4F54E754D0AE59C
:0D1CAA004B2402F88682088683C003C00721
:0D1CB700127049AA82AE83D007D003E54B1E
:0D1CC4002402F8A60208A606AA317E00E55B
:0D1CD1004B2402F8EA26F6EE0836F6D0069F
:021CDE00802A5A
:0D1CE000C006E54B240204F8E618C454F0D9
:0D1CED00C6C4C666C654F0C66608F6AA3125
:0D1CFA007E00E54B2402F8EA46F6EE0846AF
:031D0700F6D0060D
:041D0A000B021D9C0F
:071D0E00E531B414028070FE
:071D1500E531B41802800360
:031D1C00021D9C09
:091D1F00A84B08E6C39BFA7C0006
:051D2800C3EA9C404FDE
:031D2D00EF603331
:091D3000C006E4F54E754D0AE50C
:0D1D39004B2402F88682088683C002C00495
:0E1D4600C007127049AD82AE83D007D004D022
:0D1D540002E54B2402F8A60508A606D006FD
:021D61008016EA
:0D1D6300E54B240204F8E618C454F0C6C491
:091D7000C666C654F0C66608F60A
:031D79000C80AC2F
:091D7C00E54B2405F886038017ED
:0C1D8500E54B2404F88603E54B24FCF831
:0B1D9100E54B2402F9E6F70809E6F72D
:0E1D9C00C003C006C007120218D007D006D040
:041DAA0003021BA471
:0C1DAE00E54B24FCF8E54B2402F9E6F7B5
:0C1DBA000809E6F7E54B2406F886030252
:021DC6001BA45C
:0A1DC800E54B2402F88682088683AA
:061DD200854B81D04B227D
:0C1DD800C04B85814BE5812405F5817529
:091DE4002D0075F03CE52EA4244D
:0C1DED00E7FAE5F0343BFB74042AFAE44A
:0D1DF9003BFB75F008E530A42AFAE5F03B4D
:0E1E0600FB74052AF582E43BF583E493FA743D
:0D1E14000193FB740293FCE54B2403F8A638
:0D1E21000208A60308A604E54B2403F8748C
:0E1E2E000126FDE40836FE0886078D828E83AD
:0D1E3C008FF012714904FAE54B2403F8867B
:0E1E4900820886830886F0127149FBC005C02E
:0E1E570006C007C0028B8212078E1581D007CD
:0E1E6500D006D005C005C006C0071208E2D0A6
:0E1E730007D006D00590005775F001C005C0DD
:0D1E810006C0071261C4D007D006D005903E
:0E1E8E000059E0FA7B00C005C006C0077401D1
:0D1E9C00C0E0E4C0E0C002C0037582021285
:0E1EA9001B4FAA82AB83E58124FCF581D00794
:0D1EB700D006D005A84B08A60208A603908F
:0D1EC4000059E0FC7A00A84B08E6B50407C1
:071ED10008E6B502028016CD
:0C1ED800A84B08C3742396E40896400A47
:0A1EE400A84B088602900059EAF0AE
:0D1EEE008D828E838FF012714904FAE54B4E
:0E1EFB002403F886820886830886F012714957
:0E1F0900FB74032BF582C005C006C007C002A2
:0E1F170012078E1581D007D006D00590005815
:0E1F2500E0FA7B00C005C006C0077401C0E0F2
:0E1F3300E4C0E0C002C003758202121B4FAA78
:0E1F410082AB83E58124FCF581D007D006D069
:0D1F4F0005A84B08A60208A603900058E064
:0D1F5C00FA7B00A84B08E6B5020708E6B5C1
:041F690003028016D9
:0C1F6D00A84B08C3745996E40896400A7B
:0A1F7900A84B088602900058EAF019
:0D1F83008D828E838FF012714904FDE54BB5
:0E1F90002403F886820886830886F0127149C1
:0E1F9E00FA74062AF582C00512078E1581908E
:0E1FAC000057E0FA7B007401C0E0E4C0E0C022
:0E1FBA0002C003758202121B4FAA82AB83E5A0
:0D1FC8008124FCF581A84B08A60208A603A1
:0D1FD500900057E0FA7B00A84B08E6B5022B
:081FE2000708E6B503028016B2
:0C1FEA00A84B08C3745996E40896400AFE
:0A1FF600A84B088602900057EAF09D
:0A20000090005775F00112633C12C6
:06200A0008F9121568C080
:092010002E758200126CF5158199
:06201900854B81D04B2233
:0C201F00C04B85814BE5812408F581C091
:0C202B00E0A84B08D0E0A682752D0075DF
:0B203700F03CE52EA424E7FBE5F034AC
:0D2042003BFC74042BFBE43CFC75F008E54E
:0D204F0030A42BFBE5F03CFC74052BF58262
:0E205C00E43CF583E493FB740193FC7402935F
:0D206A00FDE54B2404F8A60308A60408A613
:0D20770005E54B2404F8740126FEE408364C
:0E208400FF0886028E828F838AF01271490453
:0D209200FBE54B2404F8868208868308864F
:0E209F00F0127149FCC002C006C007C0038CDD
:0E20AD008212078E1581D007D006D002C00225
:0E20BB00C006C0071208E2D007D006D002A867
:0720C9004B08E4B60301041B
:0320D000FB601B97
:0E20D30090003D75F001C002C003C006C007BA
:0D20E1001265D1D007D006D003D0028019BF
:0E20EE0090005775F001C002C003C006C00785
:0B20FC001261C4D007D006D003D00250
:03210700EB706515
:0E210A00C002C003C006C0077401C0E0E4C0FC
:0D211800E07404C0E07420C0E07582041281
:0E2125001B4FAC82AD83E58124FCF581D00711
:0D213300D006D003D002E54B2402F8A6042C
:0D21400008A605E54B2402F8C3E694040848
:08214D00E69420500302220E6B
:0D215500C003E54B2402F886037C007C00EB
:0D21620090005CEBF0A3ECF0D00302220E25
:0E216F00C002C003C006C0077401C0E0E4C097
:0D217D00E07404C0E07420C0E0758204121C
:0E218A001B4FAC82AD83E58124FCF581D007AC
:0D219800D006D003D002E54B2402F8A604C7
:0D21A50008A605E54B2402F8C3E6940408E3
:0521B200E694204050FE
:0D21B700C003E54B2402F886048C05EDC43E
:0D21C400540FFB740F5BC0E0E54B2407F8DF
:0E21D100D0E075F00AA4F608A6F08C037C009E
:0D21DF00E54B2407F8EB26FBEC0836FC531B
:0E21EC00030F7C008B057B0074642DFDE43B2B
:0D21FA00FB90005CEDF0A3EBF0D00380073C
:0722070090005CE4F0A3F07D
:0D220E008E828F838AF012714904FCE54B2B
:0E221B002404F886820886830886F012714932
:0E222900FD74052DF582C002C003C006C0077B
:0E223700C00412078E1581D007D006D003D048
:0E2245000290005BE0FC7D00C002C003C006FA
:0E225300C007E4C0E0E4C0E0C004C00575822E
:0E22610002121B4FAC82AD83E58124FCF58197
:0D226F00D007D006D003D002E54B2402F8C2
:0D227C00A60408A60590005BE0FC7D00E5CF
:0D2289004B2402F8E6B5040708E6B505028F
:02229600801CAA
:0D229800E54B2402F8E624FFF608E634FFCB
:0D22A500F6E54B2402F886047D0090005BF6
:0222B200ECF04E
:0D22B4008E828F838AF012714904FEE54B83
:0E22C1002404F886820886830886F01271498C
:0E22CF00FA74082AF582C003C00612078E15A5
:0D22DD0081D00390005AE0FA7C00C003E5B8
:0D22EA004B24FDF8E6C0E0E4C0E0C002C0F7
:0E22F70004758202121B4FAA82AC83E581247B
:0D230500FCF581D003E54B2402F8A6020888
:0D231200A60490005AE0FA7C00E54B24027E
:0C231F00F8E6B5020708E6B50402800EDF
:0D232B00E54B2402F886027C0090005AEA7F
:01233800F0B4
:03233900EB60470F
:0E233C0090005CE0FAA3E0FBBA0010BB000DBD
:0D234A0090003DE4F0A3F0A3F0A3F0803577
:0E235700746CC0E07407C0E090005775F00190
:0E23650012688CAA82AB83ACF0FD1581158145
:0E23730090003DEAF0A3EBF0A3ECF0A3EDF038
:022381008009D1
:0923830090005775F00112633C53
:07238C001208F9121568C0E8
:092393002E758200126CF5158113
:06239C00854B81D04B22AD
:0C23A200C04B85814BE5812404F581C00F
:0C23AE00E0A84B08D0E0A682752D007559
:0B23BA00F03CE52EA424E7FBE5F03426
:0D23C5003BFC74042BFBE43CFC75F008E5C8
:0D23D20030A42BFBE5F03CFC74052BF582DC
:0E23DF00E43CF583E493FD740193FE740293D5
:0E23ED00FF74022BF582E43CF583E493FB744D
:0D23FB000193FC740293FAE54B2402F8A64E
:0E2408000308A60408A60274012DFAE43EFBA8
:0E2416008F048A828B838CF012714904FA8D38
:0D242400828E838FF0127149FBE54B24FB83
:0E243100F8E62BF582C005C006C007C00212F7
:0E243F00078E1581D007D006D005C005C00657
:0E244D00C0071208E2D007D006D00574022D99
:0E245B00FDE43EFE8D828E838FF0127149FDEE
:0D246900E4C0E0C005E54B24FCF8E6C0E04F
:0D24760008E6C0E0A84B088682121B4FAAA2
:0D24830082AB83E58124FCF581E54B24024A
:0E249000F886820886830886F0127149FCA344
:0B249E00127149FDC3EA9CEB9D500445
:0424A9008C028D0311
:0D24AD00E54B2402F8740226FCE40836FD1D
:0E24BA000886068C828D838EF0127149FCA379
:0B24C800127149FDC3EC9AED9B50041B
:0424D3008C028D03E7
:0E24D700C002C0031208F9D003D002C002C038
:0D24E50003121568D003D002C002C003C06E
:0D24F2002E758200126CF51581D003D0020A
:0424FF008A828B83BF
:06250300854B81D04B2244
:06250900C04B85814BE58B
:06250F002EB40402800559
:05251500E52EB40306F1
:06251A009000637401F063
:06252000854B81D04B2227
:08252600C04B85814B7A007562
:02252E002D017D
:05253000BA0002800367
:032535000226601B
:0E25380075A61E75A6E112137DAB828B02BA4A
:0225460000E8AB
:0C254800C002120206AB82D002BB91DC84
:072554001201F4858231122F
:0C255B001523AB828B02E531B4100302A3
:02256700262B21
:08256900E531B411030225FE67
:08257100E531B414030225ED6D
:07257900E531B418028003F4
:03258000022656DA
:0C25830075F03CE52EA424E7FBE5F034E5
:0D258F003BFC74042BFDE43CFE75F008E5F8
:0D259C0030A4FAAFF0EA2DFDEF3EFE740111
:0D25A9002DF582E43EF583E493FDBDFE05B3
:0525B6001215688023EE
:0E25BB0074042BFBE43CFCEA2BFBEF3CFC74AD
:0D25C900012BF582E43CF583E493F52E85AB
:0625D600308212096B7552
:0225DC003000CD
:0D25DE00C02E758200126CF515817A010285
:0225EB00265672
:0925ED00121568C02E758200125F
:0825F6006CF515817A01805893
:0925FE00053075F03CE52EA42423
:0C260700E7FBE5F0343BFC74032BF5828C
:0C261300E43CF583E493FBE530B50303E1
:03261F0075300013
:09262200C002120AB0D002802BA4
:07262B001530E530B4FF1D7E
:0C26320075F03CE52EA424E7FBE5F03435
:0D263E003BFC74032BF582E43CF583E49330
:04264B00FB14F53057
:07264F00C002120AB0D00224
:0A265600C002120218D00202253063
:06266000854B81D04B22E6
:0C266600C04B85814BE5812404F581C246
:01267200A7C0
:0E267300900064E0FAA3E0FBC3EA94D0EB947D
:03268100075013EC
:0E26840075A61E75A6E190006474012AF0E4AC
:052692003BA3F080DC19
:0326970020910689
:06269A00752E220229E763
:0B26A000758200126D4C85822EC3E590
:0526AB002E942A4003FB
:0326B000752E0084
:0D26B30075820E126D4CAA82BA550280038A
:0326C0000229E705
:0E26C300758202126D4CAA827B00900021EA03
:0E26D100F0A3EBF08A037A00900021EAF0A358
:0E26DF00EBF07A00900021EAF0A3EBF0758298
:0E26ED0001C002C003126D4CAC82D003D002BB
:0E26FB007D00EC4202ED4203900021EAF0A3C4
:0C270900EBF07C007D00754D10754E2734
:0C271500754F007550008A828B838CF099
:0E272100ED127066AA82AB83ACF0FD900053FF
:0E272F00EAF0A3EBF0A3ECF0A3EDF07582044A
:0E273D00126D4CAE827F00900045EEF0A3EFCF
:0E274B00F08E077E00900045EEF0A3EFF07ACE
:0E275900008F03900045EAF0A3EBF0758203B9
:0E276700C002C003126D4CAE82D003D0027FC0
:0E27750000EA4206EB4207900045EEF0A3EFAB
:0D278300F08E028F037C007D00754D1075F7
:062790004E27754F007595
:0D27960050008A828B838CF0ED127066AAD1
:0E27A30082AB83ACF0FD90004FEAF0A3EBF0A8
:0E27B100A3ECF0A3EDF0758208126D4CAA8225
:0E27BF007B007C007D00900047EAF0A3EBF069
:0D27CD00A3ECF0A3EDF0E54B24010404049F
:0D27DA00F8A60418A60318A60218760090B1
:0D27E7000047A84B08E6F0A308E6F0A308A1
:0E27F400E6F0A308E6F0758207126D4CAE8287
:0D2802007F00E4FAFBA84B08E6420608E65A
:0E280F00420708E6420208E64203900047EE48
:0D281D00F0A3EFF0A3EAF0A3EBF0E54B24ED
:0E282A0001040404F8A60218A60718A6061852
:0D2838007600900047A84B08E6F0A308E6E4
:0D284500F0A308E6F0A308E6F07582061285
:0D2852006D4CAC827D00E4FAFBA84B08E65B
:0E285F00420408E6420508E6420208E642038B
:0E286D00900047ECF0A3EDF0A3EAF0A3EBF02F
:0D287B00E54B2401040404F8A60218A6058C
:0D28880018A604187600900047A84B08E63B
:0E289500F0A308E6F0A308E6F0A308E6F0754D
:0D28A3008205126D4CAE827F00E4FAFBA8A6
:0D28B0004B08E6420608E6420708E6420231
:0E28BD0008E64203900047EEF0A3EFF0A3EA16
:0E28CB00F0A3EBF075820D126D4CAA827B001B
:0E28D9007C007D0090004BEAF0A3EBF0A3EC36
:0D28E700F0A3EDF0E54B2401040404F8A675
:0E28F4000418A60318A60218760090004BA840
:0D2902004B08E6F0A308E6F0A308E6F0A3FA
:0E290F0008E6F075820C126D4CAE827F00E47B
:0D291D00FAFBA84B08E6420608E642070850
:0E292A00E6420208E6420390004BEEF0A3EFF7
:0D293800F0A3EAF0A3EBF0E54B240104044A
:0E29450004F8A60218A60718A6061876009039
:0D295300004BA84B08E6F0A308E6F0A3082F
:0E296000E6F0A308E6F075820B126D4CAC8217
:0D296E007D00E4FAFBA84B08E6420408E6F1
:0E297B00420508E6420208E6420390004BECDB
:0D298900F0A3EDF0A3EAF0A3EBF0E54B2482
:0E29960001040404F8A60218A60518A60418E9
:0D29A400760090004BA84B08E6F0A308E673
:0D29B100F0A308E6F0A308E6F075820A1214
:0D29BE006D4CAE827F00E4FAFBA84B08E6EA
:0E29CB00420608E6420708E6420208E642031A
:0E29D90090004BEEF0A3EFF0A3EAF0A3EBF0BA
:0229E700D2A775
:0629E900854B81D04B225A
:0629EF00C04B85814B1274
:0E29F5002666900033E0FAA3E0FBBA0105BBB2
:042A0300000280034A
:032A0700022A7E22
:0A2A0A0090005775F001125F8F90E5
:0D2A1400005CE0FAA3E0FBBA0028BB00253F
:082A210090005BE0FABA011D10
:082A290090005AE0FABA011511
:082A3100900059E0FABA000D13
:082A3900900058E0FABA000514
:052A4100752E2880380D
:0E2A460074D0C0E07407C0E090005775F00136
:0E2A540012688CAA82AB83ACF0FD158115814F
:0E2A620090003DE0FEA3E0FFA3E0F8A3E0F942
:0B2A7000C3EA9EEB9FEC98ED99400339
:032A7B00752E288D
:092A7E001209DAD2AFD2A8C29409
:072A8700753201752D0012EC
:092A8E00083175F03CE52EA4248A
:0C2A9700E7FAE5F0343BFB8A828B83E415
:0E2AA30093FC740193FD740293FE8C828D836C
:0E2AB1008EF0C002C003120872D003D002746F
:0D2ABF00042AFAE43BFB75F008E530A42A78
:0E2ACC00FAE5F03BFB74022AF582E43BF58349
:0C2ADA00E493F52A740193F52B74029329
:0C2AE600F52C75A61E75A6E1E52EB401C6
:042AF20003022C9817
:082AF600E52EB40203022DC815
:082AFE00E52EB40303022ECA09
:082B0600E52EB4040302318D39
:082B0E00E52EB4050302300DB1
:082B1600E52EB40703022CAA0E
:082B1E00E52EB40803022CFDB2
:082B2600E52EB40903022D396C
:082B2E00E52EB40A03022DDAC2
:082B3600E52EB40B03022E167C
:082B3E00E52EB40C03022E5237
:082B4600E52EB40D03022E8EF2
:082B4E00E52EB40E03022EDC9B
:082B5600E52EB40F03022F2F3E
:082B5E00E52EB410030231E082
:082B6600E52EB4110302325008
:082B6E00E52EB41203022FB59D
:082B7600E52EB4130302304FF9
:082B7E00E52EB414030230D966
:082B8600E52EB4150302311520
:082B8E00E52EB41603023151DB
:082B9600E52EB41703022D8C9B
:082B9E00E52EB4180302362AEB
:082BA600E52EB4190302365BB1
:082BAE00E52EB41A030232A85F
:082BB600E52EB41B030232B14D
:082BBE00E52EB41C0302337381
:082BC600E52EB41D0302341ECC
:082BCE00E52EB41E030234A140
:082BD600E52EB41F030234E8F0
:082BDE00E52EB42003023524AA
:082BE600E52EB421030235992C
:072BEE00E52EB42202803243
:082BF500E52EB4230302368330
:082BFD00E52EB424030236FDAD
:082C0500E52EB4250302370F90
:082C0D00E52EB4260302374B4B
:082C1500E52EB4270302378607
:072C1D00E52EB4280280142B
:032C24000237BFB5
:0D2C2700758200E4F583F5F01216F67532A3
:042C3400000237BFA4
:0E2C3800D292C2A8C2AE900041E0FAA3E0FB27
:0E2C4600C002C003E4C0E0E4C0E0E4C0E075FA
:0E2C540082041223A2AC82AD83158115811576
:0D2C620081D003D002EAB50424EBB50520B3
:0E2C6F0090003DE4F0A3F0A3F0A3F09000333A
:0E2C7D00E4F0A3F09000687401F0C292D2A8B7
:042C8B00D2AE800342
:032C8F00752E2877
:062C92007532000237BF9D
:0C2C98007A0D7B007C018A828B838CF01B
:062CA4001211310237BFDE
:0A2CAA0090000D75F0011211319039
:0E2CB400000DE0FAA3E0FBE4C0E0C002C003A4
:0E2CC2007582041223A2AA82AB8315811581AC
:0E2CD000158190000DEAF0A3EBF0900035E0C6
:0B2CDE00FCA3E0FDC3EC9AED9B500846
:082CE90090000DECF0A3EDF0EA
:0A2CF1009000687401F075320002D3
:022CFB0037BFE1
:0A2CFD0090000F75F00112113190E4
:0E2D0700000FE0FAA3E0FBE4C0E0C002C0034E
:0E2D15007582021223A2AA82AB83158115815A
:0E2D2300158190000FEAF0A3EBF090006874A9
:082D310001F07532000237BF0A
:0A2D390090001175F00112113190A5
:0E2D43000011E0FAA3E0FBE4C0E0C002C00310
:0E2D51007582041223A2AA82AB83158115811C
:0E2D5F001581900011EAF0A3EBF0900035E032
:0B2D6D00FCA3E0FDC3EC9AED9B5008B6
:082D7800900011ECF0A3EDF056
:0A2D80009000687401F07532000243
:022D8A0037BF51
:0A2D8C0090001375F0011211319050
:0E2D96000013E0FAA3E0FBE4C0E0C002C003BB
:0E2DA4007582041223A2AA82AB8315811581C9
:0E2DB2001581900013EAF0A3EBF09000687416
:082DC00001F07532000237BF7B
:0C2DC8007A157B007C018A828B838CF0E2
:062DD4001211310237BFAD
:0A2DDA0090001575F0011211319000
:0E2DE4000015E0FAA3E0FBE4C0E0C002C0036B
:0E2DF2007582021223A2AA82AB83158115817D
:0E2E00001581900015EAF0A3EBF090006874C5
:082E0E0001F07532000237BF2C
:0A2E160090001775F00112113190C1
:0E2E20000017E0FAA3E0FBE4C0E0C002C0032C
:0E2E2E007582021223A2AA82AB831581158140
:0E2E3C001581900017EAF0A3EBF09000687487
:082E4A0001F07532000237BFF0
:0A2E520090001975F0011211319083
:0E2E5C000019E0FAA3E0FBE4C0E0C002C003EE
:0E2E6A007582021223A2AA82AB831581158104
:0E2E78001581900019EAF0A3EBF09000687449
:082E860001F07532000237BFB4
:0A2E8E0090001B75F0011211319045
:0E2E9800001BE0FAA3E0FBE4C0E0C002C003B0
:0E2EA6007582021223A2AA82AB8315811581C8
:0E2EB400158190001BEAF0A3EBF0900068740B
:082EC20001F07532000237BF78
:0C2ECA007A1D7B007C018A828B838CF0D7
:062ED6001211310237BFAA
:0A2EDC0090001D75F00112113190F5
:0E2EE600001DE0FAA3E0FBE4C0E0C002C00360
:0E2EF4007582021223A2AA82AB83158115817A
:0E2F0200158190001DEAF0A3EBF090001FE097
:0B2F1000FCA3E0FDC3EC9AED9B500811
:082F1B0090001DECF0A3EDF0A5
:0A2F23009000687401F0753200029E
:022F2D0037BFAC
:0A2F2F0090001F75F001121131909F
:0E2F3900001FE0FAA3E0FBE4C0E0C002C0030A
:0E2F47007582031223A2AA82AB831581158125
:0E2F5500158190001FEAF0A3EBF090001DE044
:0E2F6300FCA3E0FD90001FE0FEA3E0FFC3EA28
:052F71009CEB9D5008DF
:082F760090001DEEF0A3EFF046
:0E2F7E0090001FE0FAA3E0FBBA0020BB001D8C
:0E2F8C00900021E4F0A3F0E4C0E07582011291
:0E2F9A006CF51581E4C0E0758202126CF5152D
:012FA80081A7
:0A2FA9009000687401F07532000218
:022FB30037BF26
:0E2FB500900021E0FAA3E0FB7C007D008A8200
:0E2FC3008B838CF0ED1216F6AA82AB83ACF075
:0E2FD100FD900021EAF0A3EBF0BA0024BB0053
:012FDF0021D0
:0E2FE000900053E4F0A3F0A3F0A3F0E4C0E0EF
:0E2FEE00758201126CF51581E4C0E075820257
:052FFC00126CF51581C7
:0A3001009000687401F075320002BF
:02300B0037BFCD
:0C300D007A237B007C018A828B838CF08C
:0C301900121131900023E0FAA3E0FB74D8
:0C3025004CC0E07446C0E07402C0E074CF
:0C30310048C0E07446C0E07402C0E0E457
:0E303D00C0E08A828B83120BA3E58124F9F593
:04304B00810237BF08
:0E304F00900039E0FAA3E0FBBA0005BB0002D6
:02305D00806B86
:0D305F00900023E0FAA3E0FB744CC0E07485
:0C306C0046C0E07402C0E07448C0E0748C
:0D30780046C0E07402C0E0E4C0E08A828B34
:0E30850083120BA3E58124F9F581900023E06E
:0C309300FAA3E0FB744CC0E07446C0E0FF
:0C309F007402C0E07448C0E07446C0E059
:0E30AB007402C0E08A828B831217E1AA82AB06
:0E30B90083E58124FAF581900023EAF0A3EB71
:0330C700F0800393
:0330CA0012156874
:0A30CD009000687401F075320002F3
:0230D70037BF01
:0A30D90090002575F00112113190EE
:0E30E3000025E0FAA3E0FBE4C0E0C002C00359
:0E30F1007582031223A2AA82AB83158115817A
:0E30FF001581900025EAF0A3EBF090006874B4
:08310D0001F07532000237BF2A
:0A31150090002775F00112113190AF
:0E311F000027E0FAA3E0FBE4C0E0C002C0031A
:0E312D007582031223A2AA82AB83158115813D
:0E313B001581900027EAF0A3EBF09000687475
:0831490001F07532000237BFEE
:0A31510090002975F0011211319071
:0E315B000029E0FAA3E0FBE4C0E0C002C003DC
:0E3169007582021223A2AA82AB831581158102
:0E3177001581900029EAF0A3EBF09000687437
:0831850001F07532000237BFB2
:0E318D00900047E0FAA3E0FBA3E0FCA3E0FD06
:0E319B00E4C0E08A828B838CF0ED120C5F158D
:0E31A90081900045E0FAA3E0FB7401C0E08ACB
:0E31B700828B83120D3E158190004BE0FAA32F
:0E31C500E0FBA3E0FCA3E0FD7402C0E08A8200
:0D31D3008B838CF0ED120C5F15810237BF6D
:0E31E000900047E0FAA3E0FBA3E0FCA3E0FDB3
:0E31EE008A828B838CF01216F6AA82AB83AC19
:0E31FC00F0FD900047EAF0A3EBF0A3ECF0A387
:0E320A00EDF0BA0035BB0032BC002FBD002C29
:0E321800E4C0E0758205126CF51581E4C0E09B
:0E322600758206126CF51581E4C0E075820712
:0E323400126CF51581E4C0E0758208126CF58D
:023242001581F4
:0A3244009000687401F0753200027A
:02324E0037BF88
:0E325000900045E0FAA3E0FB7C007D008A823E
:0E325E008B838CF0ED1216F6AA82AB83ACF0D7
:0E326C00FD900045EAF0A3EBF0BA0024BB0091
:01327A002132
:0E327B0090004FE4F0A3F0A3F0A3F0E4C0E055
:0E328900758203126CF51581E4C0E0758204B5
:05329700126CF5158129
:0A329C009000687401F07532000222
:0232A60037BF30
:0732A8001215A075320002AF
:0232AF0037BF27
:0C32B1007A317B007C018A828B838CF0D8
:0C32BD00121131900033E0FAA3E0FB7422
:0C32C90050C0E07446C0E07402C0E07425
:0C32D50050C0E07446C0E07402C0E0E4A9
:0E32E100C0E08A828B83120BA3E58124F9F5ED
:0D32EF0081900037E0FAA3E0FB745AC0E0C4
:0C32FC007446C0E07402C0E07456C0E0EC
:0D3308007446C0E07402C0E07403C0E08AA7
:0D331500828B83120BA3E58124F9F58190D2
:0C3322000039E0FAA3E0FB744CC0E0743A
:0C332E0046C0E07402C0E07448C0E074C7
:0D333A0046C0E07402C0E07404C0E08A8266
:0E3347008B83120BA3E58124F9F58190004BD6
:0E335500E0FAA3E0FBA3E0FCA3E0FD7405C0DA
:0E336300E08A828B838CF0ED120C5F158102E4
:0233710037BF64
:07337300E52FB40102800305
:03337A0002341505
:0E337D0090003DE0FAA3E0FBA3E0FCA3E0FD1E
:0C338B00BA0032BB002FBC002CBD002992
:0C3397007469C0E07446C0E07402C0E03D
:0C33A300745EC0E07446C0E07402C0E03C
:0E33AF00E4C0E0900000120BA3E58124F9F5C4
:0333BD0081800C00
:0C33C0007403C0E0758200120E0C158131
:0E33CC00900041E0FAA3E0FB7401C0E08A82A9
:0E33DA008B83120D3E1581900033E0FAA3E0C4
:0C33E800FB747DC0E07446C0E07402C0BD
:0C33F400E07474C0E07446C0E07402C0D5
:0E340000E07402C0E08A828B83120BA3E58188
:07340E0024F9F5810237BF2C
:073415001215687532000278
:02341C0037BFB8
:0E341E007403C0E0758200120E0C1581E4C02C
:0E342C00E075820312201F158190005775F085
:0E343A0001125F8F90003DE0FAA3E0FBA3E0DB
:0E344800FCA3E0FDC002C003C004C00574D0A8
:0D345600C0E07407C0E090005775F001124F
:0E346300688CAE82AF83A8F0F915811581D078
:0E34710005D004D003D002C3EA9EEB9FEC9876
:04347F00ED99400B78
:0B3483009000337401F0A3E4F0800718
:07348E00900033E4F0A3F00D
:0A3495009000687401F07532000227
:02349F0037BF35
:0E34A100900041E0FAA3E0FBE4C0E08A828BD9
:0E34AF0083120D3E1581900041E0FAA3E0FB70
:0E34BD00E4C0E0C002C0037582041223A2AA7C
:0E34CB0082AB83158115811581900041EAF0D6
:0D34D900A3EBF09000687401F07532000262
:0234E60037BFEE
:0A34E80090003575F00112113190CB
:0E34F2000035E0FAA3E0FBE4C0E0C002C00336
:0E3500007582041223A2AA82AB831581158165
:0E350E001581900035EAF0A3EBF09000687490
:08351C0001F07532000237BF17
:0D352400900037E0FAA3E0FB745AC0E07499
:0C35310046C0E07402C0E07456C0E074B4
:0D353D0046C0E07402C0E0E4C0E08A828B6A
:0E354A0083120BA3E58124F9F581900037E090
:0C355800FAA3E0FB745AC0E07446C0E027
:0C3564007402C0E07456C0E07446C0E081
:0E3570007402C0E08A828B831217E1AA82AB3C
:0E357E0083E58124FAF581900037EAF0A3EB93
:0B358C00F09000687401F0753200023E
:0235970037BF3C
:07359900E52FB401028003DD
:0335A000023621CF
:0D35A300900039E0FAA3E0FB744CC0E07426
:0C35B00046C0E07402C0E07448C0E07443
:0D35BC0046C0E07402C0E0E4C0E08A828BEB
:0E35C90083120BA3E58124F9F581900039E00F
:0C35D700FAA3E0FB744CC0E07446C0E0B6
:0C35E3007402C0E07448C0E07446C0E010
:0E35EF007402C0E08A828B831217E1AA82ABBD
:0E35FD0083E58124FAF581900039EAF0A3EB12
:07360B00F0BA000ABB000742
:07361200900023E4F0A3F097
:083619009000687401F08003C9
:0336210012156817
:063624007532000237BF01
:0E362A00900033E0FAA3E0FBBA001DBB001ACB
:0E3638007401C0E0758200120E0C1581740141
:0C364600C0E075820112201F1581800376
:03365200121568E6
:063655007532000237BFD0
:0E365B00900033E0FAA3E0FBBA0014BB0011AC
:0D3669007402C0E0758200120E0C15811273
:043676001DD88003D8
:03367A00121568BE
:06367D007532000237BFA8
:05368300E52FB4016C0D
:0E36880090004BE0FAA3E0FBA3E0FCA3E0FD02
:0E3696008A828B838CF01216F6AA82AB83AC6C
:0E36A400F0FD90004BEAF0A3EBF0A3ECF0A3D6
:0E36B200EDF0BA0035BB0032BC002FBD002C7D
:0E36C000E4C0E075820A126CF51581E4C0E0EA
:0E36CE0075820B126CF51581E4C0E075820C5C
:0E36DC00126CF51581E4C0E075820D126CF5DC
:0236EA00158148
:0836EC009000687401F08003F6
:0336F40012156844
:0636F7007532000237BF2E
:0C36FD007A2B7B007C018A828B838CF08E
:063709001211310237BF6E
:0A370F0090002B75F00112113190AB
:0E371900002BE0FAA3E0FBE4C0E0C002C00316
:0E3727007582021223A2AA82AB83158115813E
:0E373500158190002BEAF0A3EBF09000687471
:0837430001F07532000237BFEE
:0A374B0090002D75F001121131906D
:0E375500002DE0FAA3E0FBE4C0E0C002C003D8
:0E3763007582021223A2AA82AB831581158102
:0E377100158190002DEAF0A3EBF09000687433
:07377F0001F07532008039F2
:0A37860090002F75F0011211319030
:0E379000002FE0FAA3E0FBE4C0E0C002C0039B
:0E379E007582031223A2AA82AB8315811581C6
:0E37AC00158190002FEAF0A3EBF090006874F6
:0537BA0001F075320072
:0E37BF00900066E0FAA3E0FBBA0011BB000E1A
:0E37CD00D2A89000667401F0A3E4F0900066AC
:0737DB00E532B40102800396
:0337E200022A8731
:0637E500122526022A87CE
:0637EB00854B81D04B224A
:0E37F100800C0000001900000A00080005000E
:0E37FF0014000A007800000000006400C800FA
:0E380D0005000D001900D700000000000F2775
:0E381B0000000100020000000000D2040000C6
:0E382900000000000000000000000000000091
:04383700000000008D
:02383B00007D0E
:0E383D0000000F270000630000000F270000AE
:0E384B00D00701000A0001000A0001000A0077
:0E38590001001400000063000000E7030000FF
:0E38670064000000C80001000A0001006300B8
:04387500A000FF00B0
:04387900FF8646027E
:03387D0087460279
:0338800088460275
:05388300894602FF0070
:033888008A46026B
:03388B008F460263
:03388E009446025B
:0538910099460202054A
:033896009E460249
:0338990050460294
:03389C00A446023D
:05389F00AB4602020C23
:0338A400B2460227
:0338A700B746021F
:0338AA00BC460217
:0538AD0050460202126A
:0338B200C2460209
:0338B50050460278
:0338B800C84602FD
:0538BB00504602021856
:0338C000CE4602EF
:0338C300D74602E3
:0338C600E04602D7
:0538C90050460202213F
:0338CE00E64602C9
:0338D100ED4602BF
:0338D400F44602B5
:0538D70050460202084A
:0338DC00FA4602A7
:0338DF00FF46029F
:0338E20004470296
:0538E500054702010F80
:0338EA000647028C
:0338ED000B470284
:0338F0001047027C
:0538F300114702011560
:0338F80012470272
:0338FB0050460232
:0338FE0018470266
:0539010019470201243A
:033906001A47025B
:033909001F470253
:03390C002447024B
:05390F0025470201093B
:0339140026470241
:033917002B470239
:03391A0030470231
:05391D00314702010F1B
:0339220032470227
:0339250050460207
:033928003847021B
:05392B003947020116FE
:033930003A470211
:033933003F470209
:0339360044470201
:05393900454702011CDE
:03393E00464702F7
:033941004B4702EF
:03394400504702E7
:053947005147020124BC
:03394C00524702DD
:03394F00574702D5
:033952005C4702CD
:053955005D47020109BD
:03395A005E4702C3
:03395D00654702B9
:033960006C4702AF
:053963006D4702011296
:033968006E4702A5
:03396B0078470298
:03396E008247028B
:05397100834702012460
:0339760084470281
:0339790089470279
:03397C008E470271
:05397F008F4702010862
:0339840090470267
:033987009847025C
:03398A00A0470251
:05398D00A14702011139
:03399200A2470247
:03399500AC47023A
:03399800B647022D
:05399B00B74702011D09
:0339A000B8470223
:0339A30050460289
:0339A600BE470217
:0539A900BF47020124EC
:0339AE00C047020D
:0339B100C5470205
:0339B400CA4702FD
:0539B700CB47020107EF
:0339BC00CC4702F3
:0339BF00D34702E9
:0339C200DA4702DF
:0539C500DB4702010ECA
:0339CA00DC4702D5
:0339CD00E34702CB
:0339D000EA4702C1
:0539D300EB47020115A5
:0339D800EC4702B7
:0339DB00F44702AC
:0339DE00FC4702A1
:0539E100FD4702011D7D
:0339E600FE470297
:0339E90050460243
:0339EC000448028A
:0539EF0005480201245F
:0339F40006480280
:0339F7000B480278
:0339FA0010480270
:0539FD00114802011C4D
:033A020012480265
:033A050050460226
:033A080018480259
:053A0B00194802010052
:033A10001A48024F
:033A13001F480247
:033A16002448023F
:053A1900254802010C2C
:033A1E0026480235
:033A21002B48022D
:033A240030480225
:053A2700314802011905
:033A2C003248021B
:033A2F0039480211
:033A320040480207
:053A35004C48020200F4
:033A3A00584802E7
:033A3D005C4802E0
:033A4000604802D9
:053A43006148020109C9
:033A4800624802CF
:033A4B00674802C7
:033A4E006C4802BF
:053A51006D4802010FA9
:033A56006E4802B5
:033A5900504602D2
:033A5C00744802A9
:053A5F0075480201168C
:033A64007648029F
:033A67007B480297
:033A6A008048028F
:053A6D00814802011C6C
:033A720082480285
:033A7500504602B6
:033A780088480279
:053A7B00894802010F63
:033A80008A48026F
:033A83008F480267
:033A86009448025F
:053A8900954802011543
:033A8E0096480255
:033A9100A4480244
:033A9400B2480233
:053A9700B34802010527
:033A9C00B4480229
:033A9F00B7480223
:033AA200BA48021D
:053AA500BB480201080E
:033AAA00BC480213
:033AAD00C7480205
:033AB000D24802F7
:053AB300D348020113DD
:033AB800D44802ED
:033ABB00DD4802E1
:033ABE00E64802D5
:053AC100E74802011CB2
:033AC600E84802CB
:033AC900EF4802C1
:033ACC00F64802B7
:043ACF00F7480201B1
:093AD300FFFFFF86460208010313
:063ADC00F848020F010092
:063AE200FD48021501037E
:063AE80002490209010081
:063AEE000749020F010070
:063AF4000C49021601005E
:063AFA001149021C01004D
:063B000016490209010054
:063B06001B490212010040
:063B0C002049020801003F
:063B12002549021101002B
:063B18002B49021D010013
:063B1E003049020701001E
:063B24003549020E01020A
:063B2A003A4902150102F8
:063B30003F49021D0100E7
:063B3600444902070100F2
:063B3C004949020E0102DE
:063B42004E4902150102CC
:063B4800534902230003B3
:063B4E00584902260000A8
:063B54005D49022500009E
:063B5A0062490225000093
:063B600067490225010087
:063B66006C49022400027C
:063B6C007149021C01007A
:063B720076490224000068
:063B78007B490200010080
:063B7E008049020C010069
:063B840085490216010054
:063B8A008A49020F010050
:063B90008F490200010054
:063B96009449020901033D
:063B9C009949022500001A
:063BA2009E49021E000016
:063BA8008345022000002D
:063BAE009245021C01001B
:063BB400A349021C010000
:063BBA00A94902150100FB
:063BC000AF4902080100FC
:063BC6008345021301001B
:063BCC00B449021E0000D6
:063BD200834502240000FF
:063BD800B94902240100BE
:063BDE00BE49021C0100BB
:033BE400C34902D0
:063BE700C84902060001BE
:033BED0087380214
:053BF000D33A020002BF
:033BF500953802FE
:053BF800D33A020003B6
:033BFD00A33802E8
:053C0000D33A020004AC
:033C0500B13802D1
:053C0800D33A020005A3
:033C0D00BF3802BB
:053C1000D33A0200069A
:033C1500CD3802A5
:0B3C1800D33A02000000000000000092
:063C2300174A020500072C
:033C2900DB380283
:053C2C00D93A02000876
:033C3100E938026D
:053C3400DF3A02000967
:033C3900F7380257
:053C3C00E53A0200174B
:033C4100013A0243
:053C44006F3B0200FED1
:033C490005390238
:0C3C4C00D33A020000000000000000005D
:0C3C580000000000000000634A020500AC
:043C64000A13390204
:053C6800EB3A02000B25
:033C6D00213902F8
:053C7000F13A02000C16
:033C75002F3902E2
:053C7800F73A02000D07
:033C7D003D3902CC
:053C8000FD3A0200FE08
:033C85004B3902B6
:0C3C8800D33A0200000000000000000021
:0C3C9400000000000000008C4A02040048
:043CA0000E5939027E
:053CA400033B02000FCC
:033CA90067390276
:053CAC00093B020012BB
:033CB1009F390236
:053CB4001B3B0200FEB5
:033CB90075390258
:0C3CBC00D33A02000000000000000000ED
:0E3CC8000000000000000000000000000000EE
:073CD60000D04A02040010B7
:033CDD0083390226
:053CE0000F3B02001182
:033CE50091390210
:053CE800153B02000481
:033CED00713A0227
:053CF000B13B0200FEE3
:033CF500AD3902E4
:0C3CF800D33A02000000000000000000B1
:0E3D04000000000000000000000000000000B1
:073D120000144B0205001331
:033D1900BB3902B1
:053D1C00213B02001430
:033D2100C939029B
:053D2400273B02001521
:033D2900D7390285
:053D2C002D3B02001612
:033D3100E539026F
:053D3400333B0200FE1C
:033D3900F3390259
:0C3D3C00D33A020000000000000000006C
:0C3D4800000000000000003D4B020400E1
:043D5400180F3A0208
:053D58007B3B02001995
:033D5D001D3A020A
:053D6000813B02001A86
:033D65002B3A02F4
:053D6800D33A0200FE49
:033D6D00F3390225
:0C3D7000D33A0200000000000000000038
:0E3D7C00000000000000000000000000000039
:073D8A00008A4B020201FF59
:033D91003D3802B8
:0C3D94004B3B020000000000000000009B
:0E3DA000000000000000000000000000000015
:0E3DAE00000000000000000000000000000007
:0C3DBC000000000000000000000000DB20
:063DC8004B020201FF4165
:033DCE0038025167
:0D3DD1003B020000000000000000000000A8
:0E3DDE000000000000000000000000000000D7
:0E3DEC000000000000000000000000000000C9
:0C3DFA000000000000000000002C4C0243
:063E06000201FF45380235
:0C3E0C004B3B0200000000000000000022
:0E3E180000000000000000000000000000009C
:0E3E260000000000000000000000000000008E
:0C3E340000000000000000000000007D05
:063E40004C020202FF4DDE
:033E4600380251EE
:0D3E49003B0200000000000000000000002F
:0E3E560000000000000000000000000000005E
:0E3E6400000000000000000000000000000050
:0C3E7200000000000000000000CE4C0228
:063E7E000202FF513802B0
:0C3E8400513B02000000000000000000A4
:0E3E9000000000000000000000000000000024
:0E3E9E00000000000000000000000000000016
:0C3EAC0000000000000000000000001FEB
:063EB8004D020202FF555D
:033EBE0038025176
:0D3EC1003B020000000000000000000000B7
:0E3ECE000000000000000000000000000000E6
:0E3EDC000000000000000000000000000000D8
:0C3EEA00000000000000000000704D020D
:063EF6000202FF59380230
:0C3EFC00513B020000000000000000002C
:0E3F08000000000000000000000000000000AB
:0E3F160000000000000000000000000000009D
:0C3F24000000000000000000000000C1D0
:063F30004D020203FF5DDB
:033F3600380251FD
:0D3F39003B0200000000000000000000003E
:0E3F460000000000000000000000000000006D
:0E3F540000000000000000000000000000005F
:0C3F6200000000000000000000124E02F1
:063F6E000203FF613802AE
:0C3F7400573B02000000000000000000AD
:0E3F8000000000000000000000000000000033
:0E3F8E00000000000000000000000000000025
:0C3F9C00000000000000000000000063B6
:063FA8004E020204FF7945
:033FAE003802D303
:0D3FB1003A020000000000000000000000C7
:0E3FBE000000000000000000000000000000F5
:0E3FCC000000000000000000000000000000E7
:0C3FDA00000000000000000000B44E02D7
:063FE6000204FF7938021D
:0C3FEC00D33A02000000000000000000BA
:0E3FF8000000000000000000000000000000BB
:0E4006000000000000000000000000000000AC
:0C4014000000000000000000000000059B
:064020004F020203FF79CC
:034026003802D38A
:0D4029003A0200000000000000000000004E
:0E40360000000000000000000000000000007C
:0E40440000000000000000000000000000006E
:0C405200000000000000000000564F02BB
:06405E000205FF793802A3
:0C4064009F3B0200000000000000000074
:0E407000000000000000000000000000000042
:0E407E00000000000000000000000000000034
:0C408C000000000000000000000000A781
:064098004F020205FF6566
:03409E003802697C
:0D40A1003B020000000000000000000000D5
:0E40AE00000000000000000000000000000004
:0E40BC000000000000000000000000000000F6
:0C40CA00000000000000000000F84F02A1
:0640D6000205FF6938023B
:0C40DC00693B0200000000000000000032
:0E40E8000000000000000000000000000000CA
:0E40F6000000000000000000000000000000BC
:0C41040000000000000000000000004966
:0641100050020205FF6DE4
:034116003802511B
:0D4119003B0200000000000000000000005C
:0E41260000000000000000000000000000008B
:0E41340000000000000000000000000000007D
:0C4142000000000000000000009A500285
:06414E000201FF493802E6
:0C415400753B02000000000000000000AD
:0E416000000000000000000000000000000051
:0E416E00000000000000000000000000000043
:0C417C000000000000000000000000EB4C
:0641880050020206FF498F
:03418E003802A54F
:0D4191003B020000000000000000000000E4
:0E419E00000000000000000000000000000013
:0E41AC00000000000000000000000000000005
:0C41BA000000000000000000003C51026A
:0641C6000206FF49380269
:0C41CC00AB3B02000000000000000000FF
:0E41D8000000000000000000000000000000D9
:0E41E6000000000000000000000000000000CB
:0C41F40000000000000000000000008D32
:0642000051020206FF79E5
:034206003802D3A8
:0D4209003A0200000000000000000000006C
:0E42160000000000000000000000000000009A
:0E42240000000000000000000000000000008C
:0C423200000000000000000000AB510282
:06423E00070624393A02D4
:05424400933B02061C83
:034249009B3A029B
:05424C00933B02061F78
:03425100473A02E7
:05425400993B02062069
:03425900553A02D1
:05425C008D3B0206216C
:03426100633A02BB
:05426400873B02062368
:03426900713A02A5
:05426C00B73B0206FE55
:034271004B3902C4
:03427400D33A0238
:06427700D45102041B1DDE
:03427D00A93A0259
:05428000C33B021B1E00
:03428500B73A0243
:05428800C93B021B1CF4
:03428D00C53A022D
:05429000E13B021BFEF2
:034295004B3902A0
:0C429800D33A020000000000000000000B
:0E42A40000000000000000000000000000000C
:0742B20000FD5102021CFF98
:0342B9003D38028B
:0C42BC00CF3B02000000000000000000EA
:0E42C8000000000000000000000000000000E8
:0E42D6000000000000000000000000000000DA
:0C42E40000000000000000000000004E80
:0642F0005202021CFF3D1A
:0342F6003802D5B6
:0D42F9003B0200000000000000000000007B
:0E4306000000000000000000000000000000A9
:0E43140000000000000000000000000000009B
:0C4322000000000000000000009F52029C
:06432E00021BFF3D3802F6
:0C4334004B3B02000000000000000000F5
:0E43400000000000000000000000000000006F
:0E434E00000000000000000000000000000061
:0C435C000000000000000000000000F065
:064368005202021BFF7966
:03436E0038029F73
:0D4371003B02000000000000000000000002
:0E437E00000000000000000000000000000031
:0E438C00000000000000000000000000000023
:0C439A0000000000000000000041530281
:0643A600021BFF79380242
:0C43AC009F3B0200000000000000000029
:0E43B8000000000000000000000000000000F7
:0E43C6000000000000000000000000000000E9
:0C43D4000000000000000000000000924B
:0643E00053020200FF7908
:0343E60038029FFB
:0D43E9003B0200000000000000000000008A
:0E43F6000000000000000000000000000000B9
:0E4404000000000000000000000000000000AA
:0C441200000000000000000000DD53026C
:06441E00021BFF793802C9
:0C442400D33A020000000000000000007D
:0E44300000000000000000000000000000007E
:0E443E00000000000000000000000000000070
:0C444C0000000000000000000000002E36
:064458005402041B2513B1
:03445E003902EB35
:054461003A021B267F5A
:034466003A02F126
:054469003A021B278D43
:03446E003A02BD52
:054471003B021BFEF3FD
:034476003902D335
:0D4479003A020000000000000000000000FA
:0D4486000000000000000000000000000029
:064493005754020224FF51
:0344990071380275
:0C449C00513B0200000000000000000086
:0E44A800000000000000000000000000000006
:0E44B6000000000000000000000000000000F8
:0C44C4000000000000000000000000A844
:0644D00054020224FF71FA
:0344D60038025158
:0D44D9003B02000000000000000000000099
:0E44E6000000000000000000000000000000C8
:0E44F4000000000000000000000000000000BA
:0C450200000000000000000000F954025E
:06450E000224FF753802D3
:0C451400573B0200000000000000000007
:0E45200000000000000000000000000000008D
:0E452E0000000000000000000000000000007F
:0C453C0000000000000000000000004A29
:0645480055020200FF3DD8
:03454E003802DB55
:0D4551003B02000000000000000000000020
:0E455E0000000000000000000000000000004F
:0E456C00000000000000000000000000000041
:09457A0000000000000000000038
:0E458300253034752D253032752D25303275DA
:014591000029
:0E459200253032753A253032753A25303275B3
:0145A000001A
:0445A1002E2564005F
:0E45A500202020202020204D414348494E4533
:0E45B30020484153204245454E2053544F505E
:0E45C1005045442021202020202020202020B2
:0E45CF002020202020505245535320524553A7
:0E45DD00455420544F20434F4E54494E5545EF
:0B45EB00202020202020202020200085
:0245F6002A0099
:0E45F80020202020202020202057524F4E4708
:0E4606002050415353574F524420454E5445C7
:0E46140052454420212020202020202020205C
:0E4622002020202020505245535320414E5955
:0E463000204B455920544F20434F4E54494EC5
:03463E00554500DF
:0446410025642E00BE
:03464500256400E9
:044648004F4E2000B1
:04464C004F4646008F
:06465000202020202000C4
:04465600333A3100C2
:04465A00343A3100BD
:0B465E003030302D30302D3030200087
:0B466900303030302D30302D3030006C
:09467400454E41424C4544200032
:09467D0044495341424C454400FC
:014686000033
:014687000032
:014688000031
:014689000030
:05468A00466F696C00A1
:05468F002020202000A6
:0546940050756C6C0084
:0546990020202020009C
:06469E0053706565640025
:0746A40041646A75737400A4
:0746AB002020202020200048
:0546B200466F696C0079
:0546B70020202020007E
:0646BC00416C61726D000B
:0646C200436F756E7400E9
:0646C800536574757000DB
:0946CE00486F6C6F6772616D00AA
:0946D700202020202020202000DA
:0646E000536574757000C3
:0746E60053797374656D0048
:0746ED002020202020200006
:0646F400536574757000AF
:0546FA0050756C6C001E
:0546FF00202020200036
:0147040000B4
:0147050000B3
:05470600537465700012
:05470B00202020200029
:0147100000A8
:0147110000A7
:06471200436C65617200BA
:0147180000A0
:01471900009F
:05471A00455849540060
:05471F00202020200015
:014724000094
:014725000093
:0547260050756C6C00F1
:05472B00202020200009
:014730000088
:014731000087
:06473200436C656172009A
:014738000080
:01473900007F
:05473A00496E636800F8
:05473F002020202000F5
:014744000074
:014745000073
:0547460052616D7000DE
:05474B002020202000E9
:014750000068
:014751000067
:05475200455849540028
:054757002020202000DD
:01475C00005C
:01475D00005B
:07475E00456E61626C65000D
:07476500202020202020008D
:01476C00004C
:01476D00004B
:0A476E00526F6C6C2053697A6500ED
:0A4778002020202020202020200017
:014782000036
:014783000035
:054784004558495400F6
:054789002020202000AB
:01478E00002A
:01478F000029
:08479000496D7072657373003E
:08479800202020202020200039
:0147A0000018
:0147A1000017
:0A47A200466F696C207573656400B2
:0A47AC0020202020202020202000E3
:0147B6000002
:0147B7000001
:0647B800526573657400F8
:0147BE0000FA
:0147BF0000F9
:0547C0004558495400BA
:0547C50020202020006F
:0147CA0000EE
:0147CB0000ED
:0747CC00416374697665008A
:0747D300202020202020001F
:0147DA0000DE
:0147DB0000DD
:0747DC004F6666736574006F
:0747E300202020202020000F
:0147EA0000CE
:0147EB0000CD
:0847EC004F76657272756E00D4
:0847F4002020202020202000DD
:0147FC0000BC
:0147FD0000BB
:0647FE00537065656400C4
:0148040000B3
:0148050000B2
:05480600455849540073
:05480B00202020200028
:0148100000A7
:0148110000A6
:0648120044656C617900B1
:01481800009F
:01481900009E
:05481A0044617465001B
:05481F00202020200014
:014824000093
:014825000092
:0548260054696D6500FE
:05482B00202020200008
:014830000087
:014831000086
:0748320053797374656D00FA
:0748390020202020202000B8
:0C4840004D61696E74656E616E63650009
:0C484C0020202020202020202020200000
:0448580042264800AC
:04485C0020202000F8
:014860000057
:014861000056
:0548620050756C6C00B4
:054867002020202000CC
:01486C00004B
:01486D00004A
:06486E00526174696F0045
:014874000043
:014875000042
:05487600486F6C6F00AB
:05487B002020202000B8
:014880000037
:014881000036
:06488200546F74616C002C
:01488800002F
:01488900002E
:05488A0052616D700099
:05488F002020202000A4
:014894000023
:014895000022
:0E489600496E697469616C2073706565640019
:0E48A400202020202020202020202020200066
:0148B2000005
:0148B3000004
:0348B400504D0064
:0348B700202000BE
:0148BA0000FD
:0148BB0000FC
:0B48BC0041637469766174696F6E00DF
:0B48C7002020202020202020202000A6
:0148D20000E5
:0148D30000E4
:0948D40050617373776F72640088
:0948DD00202020202020202000D2
:0148E60000D1
:0148E70000D0
:0748E8005374617475730045
:0748EF002020202020200002
:0148F60000C1
:0148F70000C0
:0548F8002530347500BD
:0548FD002530327500BA
:054902002530347500B2
:054907002530327500AF
:05490C002530327500AA
:054911002530327500A5
:054916002530327500A0
:05491B0025303275009B
:05492000253033750095
:064925002530386C75001E
:05492B00253034750089
:05493000253033750085
:05493500253031750082
:05493A0025303375007B
:05493F00253033750076
:05494400253032750072
:0549490025303275006D
:05494E00253033750067
:05495300253033750062
:0549580025303475005C
:05495D00253032750059
:05496200253033750053
:05496700253031750050
:05496C0025303175004B
:05497100253033750044
:0549760025303475003E
:05497B00253034750039
:054980004E4F4E450002
:054985004E4F4E4500FD
